{
    "_format": "hh-sol-artifact-1",
    "contractName": "DecentralizedContentSubscription",
    "sourceName": "contracts/DecentralizedContentSubscription.sol",
    "abi": [
        {
            "inputs": [],
            "stateMutability": "nonpayable",
            "type": "constructor"
        },
        {
            "anonymous": false,
            "inputs": [
                {
                    "indexed": false,
                    "internalType": "uint256",
                    "name": "newFee",
                    "type": "uint256"
                }
            ],
            "name": "FeeUpdated",
            "type": "event"
        },
        {
            "anonymous": false,
            "inputs": [
                {
                    "indexed": true,
                    "internalType": "address",
                    "name": "subscriber",
                    "type": "address"
                },
                {
                    "indexed": false,
                    "internalType": "uint256",
                    "name": "expiry",
                    "type": "uint256"
                }
            ],
            "name": "SubscriptionRenewed",
            "type": "event"
        },
        {
            "anonymous": false,
            "inputs": [
                {
                    "indexed": true,
                    "internalType": "address",
                    "name": "subscriber",
                    "type": "address"
                },
                {
                    "indexed": false,
                    "internalType": "uint256",
                    "name": "expiry",
                    "type": "uint256"
                }
            ],
            "name": "SubscriptionStarted",
            "type": "event"
        },
        {
            "inputs": [],
            "name": "creator",
            "outputs": [
                {
                    "internalType": "address",
                    "name": "",
                    "type": "address"
                }
            ],
            "stateMutability": "view",
            "type": "function"
        },
        {
            "inputs": [
                {
                    "internalType": "address",
                    "name": "subscriber",
                    "type": "address"
                }
            ],
            "name": "getRemainingTime",
            "outputs": [
                {
                    "internalType": "uint256",
                    "name": "",
                    "type": "uint256"
                }
            ],
            "stateMutability": "view",
            "type": "function"
        },
        {
            "inputs": [
                {
                    "internalType": "address",
                    "name": "subscriber",
                    "type": "address"
                }
            ],
            "name": "isActiveSubscription",
            "outputs": [
                {
                    "internalType": "bool",
                    "name": "",
                    "type": "bool"
                }
            ],
            "stateMutability": "view",
            "type": "function"
        },
        {
            "inputs": [
                {
                    "internalType": "uint256",
                    "name": "fee",
                    "type": "uint256"
                }
            ],
            "name": "setSubscriptionFee",
            "outputs": [],
            "stateMutability": "nonpayable",
            "type": "function"
        },
        {
            "inputs": [],
            "name": "subscribe",
            "outputs": [],
            "stateMutability": "payable",
            "type": "function"
        },
        {
            "inputs": [],
            "name": "subscriptionFee",
            "outputs": [
                {
                    "internalType": "uint256",
                    "name": "",
                    "type": "uint256"
                }
            ],
            "stateMutability": "view",
            "type": "function"
        },
        {
            "inputs": [
                {
                    "internalType": "address",
                    "name": "",
                    "type": "address"
                }
            ],
            "name": "subscriptions",
            "outputs": [
                {
                    "internalType": "uint256",
                    "name": "expiry",
                    "type": "uint256"
                },
                {
                    "internalType": "uint256",
                    "name": "fee",
                    "type": "uint256"
                }
            ],
            "stateMutability": "view",
            "type": "function"
        }
    ],
    "bytecode": "0x608060405234801561001057600080fd5b50336000806101000a81548173ffffffffffffffffffffffffffffffffffffffff021916908373ffffffffffffffffffffffffffffffffffffffff160217905550610c87806100606000396000f3fe6080604052600436106100705760003560e01c80633288c70a1161004e5780633288c70a146101085780636ac84956146101455780638f449a051461016e578063f046395a1461017857610070565b806302d05d3f146100755780630aa0a175146100a05780630e85117a146100cb575b600080fd5b34801561008157600080fd5b5061008a6101b6565b6040516100979190610724565b60405180910390f35b3480156100ac57600080fd5b506100b56101da565b6040516100c29190610758565b60405180910390f35b3480156100d757600080fd5b506100f260048036038101906100ed91906107a4565b6101e0565b6040516100ff9190610758565b60405180910390f35b34801561011457600080fd5b5061012f600480360381019061012a91906107a4565b61028b565b60405161013c91906107ec565b60405180910390f35b34801561015157600080fd5b5061016c60048036038101906101679190610833565b6102d9565b005b6101766103eb565b005b34801561018457600080fd5b5061019f600480360381019061019a91906107a4565b6106bf565b6040516101ad929190610860565b60405180910390f35b60008054906101000a900473ffffffffffffffffffffffffffffffffffffffff1681565b60015481565b600042600260008473ffffffffffffffffffffffffffffffffffffffff1673ffffffffffffffffffffffffffffffffffffffff1681526020019081526020016000206000015411156102815742600260008473ffffffffffffffffffffffffffffffffffffffff1673ffffffffffffffffffffffffffffffffffffffff1681526020019081526020016000206000015461027a91906108b8565b9050610286565b600090505b919050565b600042600260008473ffffffffffffffffffffffffffffffffffffffff1673ffffffffffffffffffffffffffffffffffffffff16815260200190815260200160002060000154119050919050565b60008054906101000a900473ffffffffffffffffffffffffffffffffffffffff1673ffffffffffffffffffffffffffffffffffffffff163373ffffffffffffffffffffffffffffffffffffffff1614610367576040517f08c379a000000000000000000000000000000000000000000000000000000000815260040161035e9061096f565b60405180910390fd5b600081116103aa576040517f08c379a00000000000000000000000000000000000000000000000000000000081526004016103a1906109db565b60405180910390fd5b806001819055507f8c4d35e54a3f2ef1134138fd8ea3daee6a3c89e10d2665996babdf70261e2c76816040516103e09190610758565b60405180910390a150565b60008054906101000a900473ffffffffffffffffffffffffffffffffffffffff1673ffffffffffffffffffffffffffffffffffffffff163373ffffffffffffffffffffffffffffffffffffffff1603610479576040517f08c379a000000000000000000000000000000000000000000000000000000000815260040161047090610a6d565b60405180910390fd5b6000600154116104be576040517f08c379a00000000000000000000000000000000000000000000000000000000081526004016104b590610aff565b60405180910390fd5b6001543414610502576040517f08c379a00000000000000000000000000000000000000000000000000000000081526004016104f990610b6b565b60405180910390fd5b42600260003373ffffffffffffffffffffffffffffffffffffffff1673ffffffffffffffffffffffffffffffffffffffff168152602001908152602001600020600001541115610587576040517f08c379a000000000000000000000000000000000000000000000000000000000815260040161057e90610bfd565b60405180910390fd5b600062278d00426105989190610c1d565b90506040518060400160405280828152602001600154815250600260003373ffffffffffffffffffffffffffffffffffffffff1673ffffffffffffffffffffffffffffffffffffffff168152602001908152602001600020600082015181600001556020820151816001015590505060008054906101000a900473ffffffffffffffffffffffffffffffffffffffff1673ffffffffffffffffffffffffffffffffffffffff166108fc349081150290604051600060405180830381858888f1935050505015801561066d573d6000803e3d6000fd5b503373ffffffffffffffffffffffffffffffffffffffff167f3569431152110722ac0db636dd27ae1423bce34e35a19c281a7b4fcbb280ceb5826040516106b49190610758565b60405180910390a250565b60026020528060005260406000206000915090508060000154908060010154905082565b600073ffffffffffffffffffffffffffffffffffffffff82169050919050565b600061070e826106e3565b9050919050565b61071e81610703565b82525050565b60006020820190506107396000830184610715565b92915050565b6000819050919050565b6107528161073f565b82525050565b600060208201905061076d6000830184610749565b92915050565b600080fd5b61078181610703565b811461078c57600080fd5b50565b60008135905061079e81610778565b92915050565b6000602082840312156107ba576107b9610773565b5b60006107c88482850161078f565b91505092915050565b60008115159050919050565b6107e6816107d1565b82525050565b600060208201905061080160008301846107dd565b92915050565b6108108161073f565b811461081b57600080fd5b50565b60008135905061082d81610807565b92915050565b60006020828403121561084957610848610773565b5b60006108578482850161081e565b91505092915050565b60006040820190506108756000830185610749565b6108826020830184610749565b9392505050565b7f4e487b7100000000000000000000000000000000000000000000000000000000600052601160045260246000fd5b60006108c38261073f565b91506108ce8361073f565b92508282039050818111156108e6576108e5610889565b5b92915050565b600082825260208201905092915050565b7f4f6e6c79207468652063726561746f722063616e20706572666f726d2074686960008201527f7320616374696f6e2e0000000000000000000000000000000000000000000000602082015250565b60006109596029836108ec565b9150610964826108fd565b604082019050919050565b600060208201905081810360008301526109888161094c565b9050919050565b7f466565206d7573742062652067726561746572207468616e207a65726f2e0000600082015250565b60006109c5601e836108ec565b91506109d08261098f565b602082019050919050565b600060208201905081810360008301526109f4816109b8565b9050919050565b7f5468652063726561746f722063616e6e6f742073756273637269626520746f2060008201527f68696d73656c6600000000000000000000000000000000000000000000000000602082015250565b6000610a576027836108ec565b9150610a62826109fb565b604082019050919050565b60006020820190508181036000830152610a8681610a4a565b9050919050565b7f537562736372697074696f6e2066656520686173206e6f74206265656e20736560008201527f742e000000000000000000000000000000000000000000000000000000000000602082015250565b6000610ae96022836108ec565b9150610af482610a8d565b604082019050919050565b60006020820190508181036000830152610b1881610adc565b9050919050565b7f496e636f727265637420737562736372697074696f6e206665652073656e742e600082015250565b6000610b556020836108ec565b9150610b6082610b1f565b602082019050919050565b60006020820190508181036000830152610b8481610b48565b9050919050565b7f43616e6e6f742072656e657720616e206163746976652073756273637269707460008201527f696f6e2e00000000000000000000000000000000000000000000000000000000602082015250565b6000610be76024836108ec565b9150610bf282610b8b565b604082019050919050565b60006020820190508181036000830152610c1681610bda565b9050919050565b6000610c288261073f565b9150610c338361073f565b9250828201905080821115610c4b57610c4a610889565b5b9291505056fea2646970667358221220efcb141a24f36cc8425cdac44afcad2d1d114e404f2628e00f94f08fc288260264736f6c63430008140033",
    "linkReferences": {},
    "deployedLinkReferences": {}
}